:100000000C9431020C944E020C944E020C944E024D
:100010000C944E020C946B090C944E020C944E02FC
:100020000C944E020C944E020C944E020C948B07CE
:100030000C944E020C944E020C944E020C944E0200
:100040000C947A0A0C943F040C94A5040C944E0270
:100050000C944E020C94350A0C944E020C944E02F1
:100060000C94A9020C944E024079243019120278A3
:10007000001808034621060EAD03AB03AA03A8032C
:10008000A703A503A403A203A0039F039D039C034E
:100090009A039903970396039403920391038F03A2
:1000A0008E038C038B0389038803860385038303F4
:1000B000820381037F037E037C037B037903780340
:1000C000760375037303720371036F036E036C038E
:1000D0006B036903680367036503640362036103D9
:1000E00060035E035D035C035A0359035703560321
:1000F00055035303520351034F034E034D034B0368
:100100004A034903470346034503430342034103AC
:100110003F033E033D033C033A03390338033603F0
:10012000350334033303310330032F032D032C0332
:100130002B032A0328032703260325032303220373
:10014000210320031E031D031C031B0319031803B3
:1001500017031603150313031203110310030E03F1
:100160000D030C030B030A0308030703060305032F
:100170000403020301030003FF02FE02FD02FB026F
:10018000FA02F902F802F702F502F402F302F202AF
:10019000F102F002EE02ED02EC02EB02EA02E902E9
:1001A000E702E602E502E402E302E202E002DF0225
:1001B000DE02DD02DC02DB02D902D802D702D6025F
:1001C000D502D402D302D102D002CF02CE02CD0298
:1001D000CC02CA02C902C802C702C602C502C402D2
:1001E000C202C102C002BF02BE02BD02BC02BA020C
:1001F000B902B802B702B602B502B402B202B10245
:10020000B002AF02AE02AD02AC02AA02A902A8027D
:10021000A702A602A502A402A202A102A0029F02B6
:100220009E029D029B029A029902980297029602F0
:10023000940293029202910290028F028E028C022B
:100240008B028A0289028802860285028402830266
:10025000820281027F027E027D027C027B027A02A0
:1002600078027702760275027402720271027002DD
:100270006F026E026C026B026A0269026802660219
:10028000650264026302610260025F025E025C0258
:100290005B025A0259025802560255025402530296
:1002A000510250024F024E024C024B024A024802D7
:1002B00047024602450243024202410240023E0218
:1002C0003D023C023A02390238023602350234025B
:1002D0003302310230022F022D022C022B0229029E
:1002E00028022702250224022202210220021E02E5
:1002F0001D021C021A02190218021602150213022C
:10030000120211020F020E020C020B020A02080274
:1003100007020502040202020102FF01FE01FD01C3
:10032000FB01FA01F801F701F501F401F201F10115
:10033000EF01EE01EC01EB01E901E801E601E50165
:10034000E301E201E001DF01DD01DC01DA01D801B6
:10035000D701D501D401D201D101CF01CD01CC010A
:10036000CA01C901C701C501C401C201C001BF0161
:10037000BD01BC01BA01B801B701B501B301B201B9
:10038000B001AE01AC01AB01A901A701A601A40116
:10039000A201A0019F019D019B0199019801960175
:1003A0009401920191018F018D018B0189018801D6
:1003B00086018401820180017E017D017B0179013A
:1003C00077017501730171016F016E016C016A01A2
:1003D000680166016401620160015E015C015A010D
:1003E000580156015401520150014E014C014A017D
:1003F000480146014401420140013E013C013A01ED
:1004000038013601340132012F012D012B01290160
:1004100027012501230120011E011C011A011801D9
:100420001601130111010F010D010A010801060156
:1004300004010101FF00FD00FB00F800F600F400DC
:10044000F100EF00ED00EA00E800E600E300E10063
:10045000DF00DC00DA00D700D500D300D000CE00EA
:10046000CB0011241FBECFEFD8E0DEBFCDBF11E01F
:10047000A0E0B1E0ECEDFBE102C005900D92AA3BDB
:10048000B107D9F721E0AAEBB1E001C01D92AC3F62
:10049000B207E1F70E94D9090C94EC0D0C9400000E
:1004A0008CE88093B8008FEF8093BB0084E080934A
:1004B000BC0008958091BC00817008958091BC00BB
:1004C00080FDFCCF8091000108952091BC0020FDAB
:1004D000FCCF6093BC01FC0120812093BD0120FF73
:1004E00009C01092BB0188EF8093000185EA8093D8
:1004F000BC000895FC013196AEEBB1E081E08617B7
:1005000080F791919D938F5FFACF8091BC0080FD21
:10051000FCCF1092BB0188EF8093000185EA8093A5
:10052000BC0008952091BC0020FDFCCF2091BB01B0
:1005300020FD04C08091BB0181700895ADEBB1E056
:10054000282FFC018E2F821B8617A0F78D91819397
:10055000F9CF1F920F920FB60F9211242F933F9352
:100560008F939F93EF93FF938091B900883201F1AD
:1005700040F48031D9F08831D9F0883009F04AC090
:1005800015C0803491F128F4883309F043C085EA1E
:1005900046C08035F1F08835E9F58091BB00E091E7
:1005A000BA01F0E0E354FE4F80832DC01092BA01EF
:1005B000E091BA018091BC01E81728F581E08E0F27
:1005C0008093BA01F0E0E354FE4F80818093BB003A
:1005D00018C0E091BA0181E08E0F8093BA0180913A
:1005E000BB00F0E0E354FE4F80832091BA0130E07D
:1005F0008091BC0190E001972817390714F485EC2D
:100600000EC085E80CC08091BB0181608093BB0166
:1006100084E905C08091B9008093000184E0809353
:10062000BC00FF91EF919F918F913F912F910F907F
:100630000FBE0F901F901895FC01DB0111969C9145
:1006400011978C91992319F09181892B03C0918185
:10065000809589238183928112968C91892B828344
:100660000895209A28988FE797E00197F1F700C046
:1006700000002098EFEEF0E03197F1F700C00000A5
:1006800093B1892F817090FD07C0EFE8F6E03197B4
:10069000F1F700C00000089581E00895209A289A9B
:1006A0002FEF8EE994E2215080409040E1F700C0A6
:1006B000000020980895209A28988AE08A95F1F7FA
:1006C00000C02098E0E5EA95F1F783B1E7ECF0E0AF
:1006D0003197F1F700C0000081700895209A2898A2
:1006E0009AE09A95F1F700C08111289A8FED91E078
:1006F0000197F1F700C0000020980895EF92FF9253
:100700001F93CF93DF93C0E0D0E010E0EE24E3949A
:10071000F12C0E945B03882339F0C7010C2E01C025
:10072000880F0A94EAF7182B2196C830D10589F76B
:10073000812FDF91CF911F91FF90EF900895EF925D
:10074000FF921F93CF93DF93182FC0E0D0E0EE24E9
:10075000E394F12CC7010C2E01C0880F0A94EAF72C
:1007600081230E946E032196C830D10599F7DF914D
:10077000CF911F91FF90EF900895E091E701F0E095
:10078000E952FE4F80819091E7019F5F9093E701CE
:100790009091E701903111F41092E7012091E70167
:1007A0009091E801291309C01092EA011092E70123
:1007B0001092E80191E09093E90108958EE284B9E6
:1007C00085E58CBD80E88DBDE7EDF1E0138A118AE7
:1007D00081E0828B089580E184B984EC8CBDE7EDE3
:1007E000F1E0138A118A81E0828B08958EBD0DB4E9
:1007F00007FEFDCF8EB508950DB407FEFDCF8EB573
:1008000008958091EA010895CF92DF92FF920F93AD
:100810001F93CF93DF936C01F12C062F10E0015052
:1008200011098091E9012F2D30E0811103C02017BB
:1008300031078CF0F601E20FF31F10828091E9017D
:10084000811115C0DF91CF911F910F91FF90DF9023
:10085000CF900C94BD03E601C20FD31F9091E90124
:10086000911102C00E94BD038883F394DACFDF9117
:10087000CF911F910F91FF90DF90CF9008951F921D
:100880000F920FB60F9211248F939F93EF93FF93C4
:100890008EB58E3249F1E091E801F0E0E952FE4F69
:1008A00080839091E7018091E80198130FC08091B7
:1008B000E90181110BC08091E7018F5F8093E7010F
:1008C0008091E701803111F41092E7018091E801F5
:1008D0008F5F8093E8011092E9018091E8018031F7
:1008E00031F41092E80103C081E08093EA01FF91A6
:1008F000EF919F918F910F900FBE0F901F901895C1
:1009000081E091E00895E0ECF0E09583848310822B
:1009100088ED818386E08283E7EDF1E0138A118A16
:1009200081E0828B08959091C00095FFFCCF809369
:10093000C60008950E94930480E090E0089590918D
:10094000EA0181E0911180E008951F920F920FB6A5
:100950000F9211248F939F93EF93FF938091C60082
:100960008E3249F1E091E801F0E0E952FE4F8083D8
:100970009091E7018091E80198130FC08091E901FF
:1009800081110BC08091E7018F5F8093E701809117
:10099000E701803111F41092E7018091E8018F5F47
:1009A0008093E8011092E9018091E801803131F4EF
:1009B0001092E80103C081E08093EA01FF91EF917A
:1009C0009F918F910F900FBE0F901F90189580915F
:1009D000E901811121C0E091E701F0E0E952FE4F09
:1009E00080819091E7019F5F9093E7019091E701EB
:1009F000903111F41092E7012091E7019091E80104
:100A000029130BC01092EA011092E7011092E8013D
:100A100091E09093E901089580E00895CF92DF92EC
:100A2000EF92FF921F93CF93DF937C0110E0C62FCC
:100A3000D0E021978091E901811105C0812F90E0DC
:100A40008C179D076CF0F701E10FF11D1082DF910B
:100A5000CF911F91FF90EF90DF90CF900C94E7041F
:100A60006701C80ED91E0E94E704F60180831F5F4C
:100A7000E1CF8091E90108958FE091E0089561113F
:100A800002C05A9801C05A9A9BB19F70282F207FAC
:100A9000922B9BB945E04A95F1F700005B9A95E0EF
:100AA0009A95F1F700005B9840EF4A95F1F72BB16A
:100AB000922F9F7040E1849F90011124292B2BB924
:100AC00095E09A95F1F700005B9A45E04A95F1F7B9
:100AD00000005B9890EF9A95F1F7611108C084309F
:100AE00030F48FE39FE10197F1F700C00000089513
:100AF00061E00E943F0580E090E00895529A539A89
:100B00008AB1806F8AB95A985B982FEF89EF90E08D
:100B1000215080409040E1F700C000008BB18F7001
:100B200080638BB925E02A95F1F700005B9A85E098
:100B30008A95F1F700005B9890EF9A95F1F78FE1B5
:100B40009EE40197F1F700C0000095E09A95F1F757
:100B500000005B9A25E02A95F1F700005B9880EF92
:100B60008A95F1F78FE193E00197F1F700C000005B
:100B700095E09A95F1F700005B9A25E02A95F1F748
:100B800000005B9880EF8A95F1F78BB18F708062DF
:100B90008BB995E09A95F1F700005B9A25E02A95CC
:100BA000F1F700005B9880EF8A95F1F760E088E24A
:100BB0000E943F0560E088E00E943F0560E081E020
:100BC0000E943F0560E08CE00E943F0560E080E805
:100BD0000C943F05CF93DF93EC018991882321F09A
:100BE00061E00E943F05F9CFDF91CF910895CF9347
:100BF000DF93EC01FE018491882339F0FE0184919A
:100C000061E00E943F052196F5CFDF91CF910895D5
:100C10008DE191E00895CF93DF93C82FD62F809177
:100C2000EC01611102C08E7F01C081608093EC01F4
:100C30008091EC018F709C2F907F892B8460809332
:100C4000EC0162E08BEE91E00E9465028091EC0184
:100C50008B7F8093EC0162E08BEE91E00E94650255
:100C60008091EC01282F2F7030E1C39FC001112427
:100C7000822B84608093EC0162E08BEE91E00E9415
:100C800065028091EC018B7F8093EC0162E08BEE3A
:100C900091E00E946502D11108C0C43030F48FE3A6
:100CA0009FE10197F1F700C00000DF91CF91089517
:100CB00061E00E940B0680E090E00895CF93DF93FF
:100CC000CBEED1E08EE7888385EF898362E0CE01A9
:100CD0000E94650289818A7F898362E0CE010E9439
:100CE00065022FEF89EF90E0215080409040E1F7BE
:100CF00000C0000089818F708463898362E0CE0127
:100D00000E94650289818B7F898362E0CE010E9407
:100D100065028FE19EE40197F1F700C00000898130
:100D20008460898362E0CE010E94650289818B7FA5
:100D3000898362E0CE010E9465028FE193E0019712
:100D4000F1F700C0000089818460898362E0CE01F0
:100D50000E94650289818B7F898362E0CE010E94B7
:100D60006502898187708C62898362E0CE010E946E
:100D7000650289818B7F898362E0CE010E946502D2
:100D800060E088E20E940B0660E088E00E940B06AB
:100D900060E081E00E940B0660E08CE00E940B06A0
:100DA00060E080E8DF91CF910C940B06CF93DF9346
:100DB000EC018991882321F061E00E940B06F9CFB4
:100DC000DF91CF910895CF93DF93EC01FE018491E1
:100DD000882339F0FE01849161E00E940B06219680
:100DE000F5CFDF91CF910895CF92DF92EF92FF92EE
:100DF0000F931F93CF93DF9300D01F92CDB7DEB731
:100E00006C017B01042F8FE7898381E08A831B8239
:100E1000BE016F5F7F4FC6010E941C0311E0100FDF
:100E20001983BE016F5F7F4FC7010E941C03EDEE67
:100E3000F1E0D182C082F382E282048310951583AF
:100E40000F900F900F90DF91CF911F910F91FF9016
:100E5000EF90DF90CF90089590E041E050E0209136
:100E6000F101921760F5E82FEF70F0E0E859FF4FBD
:100E7000E491A091ED01B091EE011296EC93E09116
:100E8000EF01F091F00162819A01092E01C0220F59
:100E90000A94EAF7262B228382958F70EFE3FCE910
:100EA0003197F1F700C00000E091EF01F091F001FF
:100EB00032812091F201232322839F5FD0CF0895B6
:100EC000239A85B185B9E0EBF0E083E8808384E084
:100ED0008183138208958093B3000895E0E8F0E0E1
:100EE00010828CE08183AEE6B0E011968C91119770
:100EF000826011968C9380E091EE918780870895AF
:100F0000E3EFF1E0158216821782EEE6F0E08181D0
:100F10008D7F818308951F920F920FB60F92112437
:100F20008F938091F8018F5F8093F8018091F80191
:100F30008C3338F08091F9018F5F8093F901109222
:100F4000F8018091F9018C3338F08091FA018F5FBC
:100F50008093FA011092F9018F910F900FBE0F90BC
:100F60001F901895DF92EF92FF920F931F93CF93EC
:100F7000DF930E946E0760E080E80E940B06C3EFDB
:100F8000D1E01A810E9408061F921F9327E331E0E7
:100F90003F932F939F938F930E94E80A60E080EC29
:100FA0000E940B06DD80EE80FF800E94170A8C01F4
:100FB0000E94170AEC010E940806482FE92F1F9291
:100FC000DF921F92EF921F92FF922AE030E0C80159
:100FD000B9010E94D40A9F938F93CE01B9010E9458
:100FE000D40A7F936F9388E491E09F938F93EF935C
:100FF0004F930E94E80A2FEF8FE097E22150804044
:101000009040E1F700C000001092C2018DB79EB77A
:1010100044960FB6F8949EBF0FBE8DBFDF91CF915F
:101020001F910F91FF90EF90DF9008950F931F9302
:10103000CF93DF9360E080E80E940B060E940806D1
:10104000BC0182E691E00E94FA0A60E080EC0E9416
:101050000B060E94170A8C010E94170AEC010E94DD
:101060000806482FE92F2AE030E0C801B9010E94A4
:10107000D40A9F938F93CE01B9010E94D40A7F9323
:101080006F9383E791E09F938F93EF934F930E9429
:10109000E80A2FEF8FE097E2215080409040E1F77F
:1010A00000C000001092C2018DB79EB708960FB61F
:1010B000F8949EBF0FBE8DBFDF91CF911F910F910E
:1010C0000895DF92EF92FF920F931F93CF93DF93D8
:1010D0008AB18C608AB98BB18C608BB94A990DC08A
:1010E0002FEF83EC99E0215080409040E1F700C061
:1010F00000008091F6018F5F0EC04B990EC02FEF5C
:1011000083EC99E0215080409040E1F700C000005E
:101110008091F60181508093F60160E080EC0E949E
:101120000B06D090F801E090F901F090FA010E94CE
:10113000170A8C010E94170AEC010E940806482F2A
:10114000E92F1F92DF921F92EF921F92FF922AE0E7
:1011500030E0C801B9010E94D40A9F938F93CE0159
:10116000B9010E94D40A7F936F9388E491E09F9322
:101170008F93EF934F930E94E80A60E080E80E940B
:101180000B06C091F6010E9408061F92CF9327E339
:1011900031E03F932F939F938F930E94E80A2FEFA4
:1011A00083EC99E0215080409040E1F700C00000BE
:1011B00060E080E80E940B060E940806BC0182E6FF
:1011C00091E00E94FA0A2FEF81EE94E021508040D6
:1011D0009040E1F700C000001092C2018DB79EB7A9
:1011E00044960FB6F8949EBF0FBE8DBFDF91CF918E
:1011F0001F910F91FF90EF90DF90089560E080E8DD
:101200000E940B060E940806BC0187E891E00E943C
:10121000FA0A60E080EC0E940B068091F7018111D0
:1012200006C00E940806BC0188E991E009C08091CF
:10123000F701813039F40E940806BC0189EA91E087
:101240000E94FA0A4A9B02C04B9913C02FEF83EC0D
:1012500099E0215080409040E1F700C0000080916B
:10126000F701811104C081E08093F70102C0109260
:10127000F7012FEF81EE94E0215080409040E1F79C
:1012800000C000001092C20108958AB183608AB93B
:101290008BB183608BB984E08093680083E0809396
:1012A0006D00E3EFF1E01182108289E182838FE427
:1012B0008383148215821682178281E080870E94C0
:1012C00060070C940A0A8091F50108959093F40147
:1012D0008093F30108951F920F920FB60F9211247D
:1012E0002F933F934F935F936F937F938F939F932E
:1012F000AF93BF93EF93FF93489910C08091C201C1
:1013000081110CC08091FB018130D1F028F0823036
:10131000D1F18330B1F139C083E013C0499935C0B0
:101320008091C201811131C08091FB01823061F056
:10133000833079F0811129C08091F5018093F60105
:1013400082E08093FB0121C08091F6018093F5013A
:101350001AC08091F701811114C00E948007109279
:10136000F4011092F3018091F3019091F4010E9435
:101370006B0780E58093F60189E18093F50181E0B8
:10138000E0CF1092F7011092FB0181E08093C2013F
:10139000FF91EF91BF91AF919F918F917F916F914D
:1013A0005F914F913F912F910F900FBE0F901F9023
:1013B00018950E9445090E94500278940E945E068A
:1013C0002FEF81EE94E0215080409040E1F700C083
:1013D00000008091FB0190E0FC01EE0FFF1F8E0FDB
:1013E0009F1FFC01E55DFE4F0180F281E02D099514
:1013F000F0CF87B18D6F87B9E8E7F0E080E48483B0
:101400008FEC82838681826086838481807F816085
:10141000848308950E94F909559A5D9A14BC8DE061
:1014200085BDEEE6F0E08081816080830895E091E3
:10143000D501F091D60193E0F695E7959A95E1F7FD
:10144000E23C81E0F80718F4E8E7F0E00BC0E73B86
:1014500083E0F80718F0E0E6F4E004C0EE0FFF1FA9
:10146000EC50F3408591949108951F920F920FB61E
:101470000F9211242F933F934F935F938F93EF938A
:10148000FF934091D5015091D6018091D401E82F6E
:10149000F0E02091780030917900240F351FEE0F95
:1014A000FF1FEC53FE4F40815181241B350B3093BD
:1014B000D6012093D50120917800309179003183B5
:1014C00020838F5F883019F08093D40102C010927E
:1014D000D40180917A00806480937A00FF91EF912B
:1014E0008F915F914F913F912F910F900FBE0F9071
:1014F0001F9018951F920F920FB60F9211242F93E1
:101500003F934F935F936F937F938F939F93AF938B
:10151000BF93CF93DF93EF93FF938091C301863006
:1015200059F50E94170AEC010E9463092AE0829F84
:10153000C0011124C817D90798F49C012C1B3D0B3E
:101540002536310578F44FEF429FC001439F900D3F
:10155000112464E670E00E94D40AC62F972F04C0BD
:10156000C0E001C0CFEF90E08C2F0E9466098C2F65
:101570000E946B071092C3018091C3018F5F80931B
:10158000C301FF91EF91DF91CF91BF91AF919F91F7
:101590008F917F916F915F914F913F912F910F901C
:1015A0000FBE0F901F901895AA1BBB1B51E107C0DF
:1015B000AA1FBB1FA617B70710F0A61BB70B881FE3
:1015C000991F5A95A9F780959095BC01CD01089572
:1015D000A0E0B0E0EEEEFAE00C94C50DAE01475F7E
:1015E0005F4F6F8178858D819E810E94240BE2E0A0
:1015F0000C94E10DEF92FF920F931F93CF93DF9323
:10160000DB0113962C9121FF18C08B017C01D0E0E7
:10161000C0E0F70181917F01882361F0D80118961D
:10162000ED91FC911997B8010995892B91F3DFEFA2
:10163000CFEFEFCF8D2F9C2F02C08FEF9FEFCDB755
:10164000DEB7E6E00C94DD0DABE0B0E0EAE2FBE0F3
:101650000C94B50D6C017B018A01FC011782168286
:10166000838181FFCCC1CE0101963C01F6019381BB
:10167000F70193FD859193FF81917F01882309F400
:10168000BAC1853239F493FD859193FF81917F0131
:10169000853229F4B60190E00E941B0DE7CF912C12
:1016A000212C312CFFE1F315D8F08B3279F038F48E
:1016B000803279F08332A1F4232D20611DC08D3258
:1016C00061F0803369F4232D216016C0832D826080
:1016D000382EE32DE4603E2E2AC0F32DF8601DC0A5
:1016E00037FC2DC020ED280F2A3040F08E32B9F49F
:1016F00036FC81C1232D2064322E19C036FE06C06F
:101700008AE0989E200D1124922E11C0EAE02E9EB0
:10171000200D1124222EF32DF0623F2E08C08C36AE
:1017200021F4832D8068382E02C0883641F4F701F9
:1017300093FD859193FF81917F018111B3CF982F04
:101740009F7D9554933028F40C5F1F4F9FE399833E
:101750000DC0833631F0833771F0833509F059C0FD
:1017600021C0F801808189830E5F1F4F88248394F4
:10177000912C530113C02801F2E04F0E511CF801C7
:10178000A080B18036FE03C0692D70E002C06FEF0B
:101790007FEFC5010E94100D4C018201F32DFF77F0
:1017A0003F2E16C0280122E0420E511CF801A080F5
:1017B000B18036FE03C0692D70E002C06FEF7FEF8D
:1017C000C5010E94050D4C01F32DF0683F2E8201EA
:1017D00033FC1BC0822D90E088169906B0F4B60148
:1017E00080E290E00E941B0D2A94F4CFF50137FCB3
:1017F000859137FE81915F01B60190E00E941B0D3B
:1018000021102A9421E0821A91088114910471F721
:10181000E8C0843611F0893641F5F80137FE07C07B
:1018200060817181828193810C5F1F4F08C060814C
:101830007181072E000C880B990B0E5F1F4FF32D43
:10184000FF763F2E97FF09C0909580957095619522
:101850007F4F8F4F9F4FF0683F2E2AE030E0A3016B
:101860000E94570D882E861845C0853731F4232DE8
:101870002F7EB22E2AE030E025C0932D997FB92E1D
:101880008F36C1F018F4883579F0B5C0803719F07B
:10189000883721F0B0C0E92FE061BE2EB4FE0DC044
:1018A000FB2DF460BF2E09C034FE0AC0292F26602C
:1018B000B22E06C028E030E005C020E130E002C0D2
:1018C00020E132E0F801B7FE07C0608171818281BA
:1018D00093810C5F1F4F06C06081718180E090E0B2
:1018E0000E5F1F4FA3010E94570D882E8618FB2DF7
:1018F000FF773F2E36FE0DC0232D2E7FA22E89149A
:1019000058F434FE0BC032FC09C0832D8E7EA82E05
:1019100005C0B82CA32C03C0B82C01C0B92CA4FE60
:101920000FC0FE01E80DF11D8081803321F49A2D56
:10193000997EA92E09C0A2FE06C0B394B39404C038
:101940008A2D867809F0B394A3FC11C0A0FE06C0CE
:10195000B21488F4280C922C9B180EC0B21460F4B8
:10196000B60180E290E00E941B0DB394F7CFB21451
:1019700018F42B1802C0982C212CA4FE10C0B6011C
:1019800080E390E00E941B0DA2FE17C0A1FC03C0E3
:1019900088E790E002C088E590E0B6010CC08A2D8F
:1019A000867859F0A1FE02C08BE201C080E2A7FC5C
:1019B0008DE2B60190E00E941B0D891438F4B60147
:1019C00080E390E00E941B0D9A94F7CF8A94F30174
:1019D000E80DF11D8081B60190E00E941B0D811081
:1019E000F5CF222009F442CEB60180E290E00E94B9
:1019F0001B0D2A94F6CFF6018681978102C08FEFE6
:101A00009FEF2B96E2E10C94D10DFC010590615003
:101A100070400110D8F7809590958E0F9F1F089504
:101A2000FC016150704001900110D8F780959095AD
:101A30008E0F9F1F08950F931F93CF93DF93FB018A
:101A4000238121FD03C08FEF9FEF2CC022FF16C022
:101A500046815781248135814217530744F4A08180
:101A6000B1819D012F5F3F4F318320838C9326816D
:101A700037812F5F3F4F3783268314C08B01EC01E2
:101A8000FB010084F185E02D0995892BE1F6D80151
:101A900016968D919C911797019617969C938E930D
:101AA0001697CE01DF91CF911F910F910895FA0102
:101AB000AA27283051F1203181F1E8946F936E7F8D
:101AC0006E5F7F4F8F4F9F4FAF4FB1E03ED0B4E07E
:101AD0003CD0670F781F891F9A1FA11D680F791FBF
:101AE0008A1F911DA11D6A0F711D811D911DA11DD0
:101AF00020D009F468943F912AE0269F11243019E0
:101B0000305D3193DEF6CF010895462F4770405D7A
:101B10004193B3E00FD0C9F7F6CF462F4F70405D29
:101B20004A3318F0495D31FD4052419302D0A9F784
:101B3000EACFB4E0A6959795879577956795BA957E
:101B4000C9F700976105710508959B01AC010A2E44
:101B500006945795479537952795BA95C9F7620F1B
:101B6000731F841F951FA01D08952F923F924F92BF
:101B70005F926F927F928F929F92AF92BF92CF921D
:101B8000DF92EF92FF920F931F93CF93DF93CDB726
:101B9000DEB7CA1BDB0B0FB6F894DEBF0FBECDBF9E
:101BA00009942A88398848885F846E847D848C846F
:101BB0009B84AA84B984C884DF80EE80FD800C8178
:101BC0001B81AA81B981CE0FD11D0FB6F894DEBF5B
:0C1BD0000FBECDBFED010895F894FFCFCB
:101BDC00F800000002000000009A04000000000061
:101BEC00000002000000007805000000000000006A
:101BFC00020000000058060000000000B2070116A9
:101C0C000802610803FE0854656D702E2020202008
:101C1C0020202025336443002532642C2531644375
:101C2C00202020253032643A253032643A25303277
:101C3C00640054656D702E20202020202020202050
:101C4C002020002532642C253164432020202020C4
:101C5C00204465736C2E004465736C696761723F38
:101C6C00202020202020200020202053494D2020FF
:101C7C0020206E616F2020200020202073696D20B1
:0A1C8C002020204E414F20202000B0
:00000001FF
